{
  "contractName": "SimpleStorage",
  "abi": [
    {
      "inputs": [
        {
          "components": [
            {
              "internalType": "uint256",
              "name": "value",
              "type": "uint256"
            },
            {
              "internalType": "address",
              "name": "owner",
              "type": "address"
            }
          ],
          "internalType": "struct SimpleStorage.Data",
          "name": "newData",
          "type": "tuple"
        }
      ],
      "name": "set",
      "outputs": [],
      "stateMutability": "nonpayable",
      "type": "function"
    },
    {
      "inputs": [],
      "name": "get",
      "outputs": [
        {
          "components": [
            {
              "internalType": "uint256",
              "name": "value",
              "type": "uint256"
            },
            {
              "internalType": "address",
              "name": "owner",
              "type": "address"
            }
          ],
          "internalType": "struct SimpleStorage.Data",
          "name": "",
          "type": "tuple"
        }
      ],
      "stateMutability": "view",
      "type": "function",
      "constant": true
    }
  ],
  "bytecode": "0x608060405234801561000f575f80fd5b506103a58061001d5f395ff3fe608060405234801561000f575f80fd5b5060043610610034575f3560e01c80630193c8b8146100385780636d4ce63c14610054575b5f80fd5b610052600480360381019061004d91906102e0565b610072565b005b61005c6100c8565b6040516100699190610356565b60405180910390f35b805f80820151815f01556020820151816001015f6101000a81548173ffffffffffffffffffffffffffffffffffffffff021916908373ffffffffffffffffffffffffffffffffffffffff16021790555090505050565b6100d061013f565b5f6040518060400160405290815f8201548152602001600182015f9054906101000a900473ffffffffffffffffffffffffffffffffffffffff1673ffffffffffffffffffffffffffffffffffffffff1673ffffffffffffffffffffffffffffffffffffffff1681525050905090565b60405180604001604052805f81526020015f73ffffffffffffffffffffffffffffffffffffffff1681525090565b5f604051905090565b5f80fd5b5f80fd5b5f601f19601f8301169050919050565b7f4e487b71000000000000000000000000000000000000000000000000000000005f52604160045260245ffd5b6101c48261017e565b810181811067ffffffffffffffff821117156101e3576101e261018e565b5b80604052505050565b5f6101f561016d565b905061020182826101bb565b919050565b5f819050919050565b61021881610206565b8114610222575f80fd5b50565b5f813590506102338161020f565b92915050565b5f73ffffffffffffffffffffffffffffffffffffffff82169050919050565b5f61026282610239565b9050919050565b61027281610258565b811461027c575f80fd5b50565b5f8135905061028d81610269565b92915050565b5f604082840312156102a8576102a761017a565b5b6102b260406101ec565b90505f6102c184828501610225565b5f8301525060206102d48482850161027f565b60208301525092915050565b5f604082840312156102f5576102f4610176565b5b5f61030284828501610293565b91505092915050565b61031481610206565b82525050565b61032381610258565b82525050565b604082015f82015161033d5f85018261030b565b506020820151610350602085018261031a565b50505050565b5f6040820190506103695f830184610329565b9291505056fea264697066735822122043241d7b79783bec7fd03c32a4995669007365e0c3e6a87b92494e8daa94d4ad64736f6c63430008150033",
  "immutableReferences": {},
  "source": "// SPDX-License-Identifier: MIT\r\npragma solidity >=0.8;\r\n\r\ncontract SimpleStorage {\r\n    struct Data {\r\n        uint256 value;\r\n        address owner;\r\n    }\r\n    Data data;\r\n\r\n    function set(Data memory newData) public {\r\n        data = newData;\r\n    }\r\n\r\n    function get() public view returns (Data memory) {\r\n        return data;\r\n    }\r\n}\r\n",
  "sourcePath": "E:\\nixvoid\\talleres-nixvoid\\vue-dapp-workshop\\vue-dapp-workshop-project\\simple-storage\\contracts\\SimpleStorage.sol",
  "compiler": {
    "name": "solc",
    "version": "0.8.21+commit.d9974bed.Emscripten.clang"
  },
  "schemaVersion": "3.4.15",
  "updatedAt": "2023-08-27T00:20:06.401Z",
  "networkType": "ethereum",
  "devdoc": {
    "kind": "dev",
    "methods": {},
    "version": 1
  },
  "userdoc": {
    "kind": "user",
    "methods": {},
    "version": 1
  }
}